:10000000002000100D01000099010000990100007E
:1000100000000000000000000000000000000000E0
:100020000000000000000000000000009901000036
:10003000000000000000000099010000990100008C
:100040009901000099010000990100009901000048
:100050009901000099010000990100009901000038
:100060009901000099010000990100009901000028
:100070009901000099010000990100009901000018
:100080009901000099010000990100009901000008
:10009000990100006D020000990100009901000023
:1000A00099010000990100009901000099010000E8
:1000B00099010000990100009901000099010000D8
:1000C00080B500AF0B4B00221A600B4B23221A6045
:1000D0000A4B0A4A126880218A431A60084B01229F
:1000E0001A60084B03221A60074B01221A60BD46B2
:1000F00080BDC046408004400880044038820440EF
:1001000044800440708004407480044080B584B012
:1001100000AF1C4BFB601C4BBB601C4A1A4BD31A34
:100120007B6009E0FB681A78BB681A70BB68013312
:10013000BB60FB680133FB607B685A1E9341DBB2F6
:100140007A68013A7A60002BECD1114BBB60114AFE
:100150000F4BD31A7B6005E0BB6800221A70BB68A6
:100160000133BB607B685A1E9341DBB27A68013A67
:100170007A60002BF0D1FFF7A3FF00F089F8BD46AD
:1001800004B080BD9C0200000000001000000010C0
:10019000000000100000001080B500AFFEE7C04670
:1001A00080B500AF274B274A126827490A431A60D7
:1001B000264B264A126801210A431A60234B234A20
:1001C000126806218A431A60214B214A12680121D4
:1001D0000A431A601E4B1E4A126806218A431A609F
:1001E000184B184A1268802149010A431A60194BBA
:1001F00001221A60184B184A126880210A431A60BB
:10020000164B10221A60164B38221A60154B012229
:100210001A60114B104A126880218A431A600E4BF3
:100220000D4A126803210A431A600E4B05221A6018
:100230000D4B0D4A1268802189030A431A60BD469E
:1002400080BDC0468080044040000100A4400440BE
:10025000A8400440988004400C8000402880004062
:10026000008000400480004000E100E080B500AF65
:10027000054B1A680423134003D0044B034A126849
:100280001A60BD4680BDC046088000400080004026
:0C02900080B500AFFFF784FF62B6FEE708
:00000001FF
