:1000000038040010C51100002D1200002D12000050
:100010002D1200002D1200002D1200000000000023
:100020000000000000000000000000002D12000091
:100030002D120000000000002D1200002D12000003
:100040002D1200002D1200002D1200002D120000B4
:100050002D1200002D1200002D1200002D120000A4
:100060002D1200002D1200002D1200002D12000094
:100070002D1200002D1200002D1200002D12000084
:100080002D1200002D1200002D120000910C000016
:100090002D1200002D1200002D1200002D12000064
:1000A0002D1200002D1200002D1200002D12000054
:1000B000510C00002D1200002D1200002D12000026
:1000C00080B582B000AF021CFB1D1A705C200221BB
:1000D00001F03CF88C20002101F038F828200221A2
:1000E00001F034F8FB1D1B78012B03D108200221FD
:1000F00001F02CF8BD4602B080BDC04680B58EB080
:1001000000AF786039603B1C173300221A7000235F
:100110003B610023FB600023FB620123BB620023E1
:100120007B6200233B620023FB61514BBB6100F00B
:10013000EDFF031CBB60BB681B09BB6001237B6335
:1001400059E000233B634BE07B6BBA685A43796B01
:100150003B6BCB18101C191C01F0EAFA031CFB6066
:10016000F868396801F0E4FA031CFB62FB68181CAC
:10017000396801F021FB0B1C1A1C3B685B089A4292
:1001800002D9FB6A0133FB62FB6A022B25D9FA6AAA
:10019000384B9A4221D8F868F96A01F0C9FA031C71
:1001A0003B613A693B689A4204D83A683B69D31A82
:1001B000FB6103E03A693B68D31AFB61FA69BB69EA
:1001C0009A420AD27B6BBB623B6B7B62FB6A3B62EF
:1001D000FB69BB61FB69002B06D03B6B01333B63C2
:1001E0003B6B0F2BB0D900E0C046FB69002B06D05B
:1001F0007B6B01337B637B6B0F2BA2D900E0C04686
:100200003A68131C5B009B18181C642101F090FADB
:10021000031C1A1CBB699A4222D97B68DB688022C6
:100220001A437B68DA603B6A1A0AFF231A407B682C
:100230005A603A6AFF231A407B681A607B68DA6862
:100240007F231A407B68DA60BB6A1A01FF231A40D9
:10025000796A0F230B401A43FF231A407B689A6286
:100260003B1C17331B78181CBD460EB080BDC04622
:10027000A0860100FFFF000080B500AFA42001218F
:1002800000F064FFA820012100F060FFBD4680BDA2
:1002900080B584B000AF7860396080235B01181CA2
:1002A000012100F0F9FE4E4A9823D258FF23134053
:1002B00002D1012000F01CFF7B6807229A607B6856
:1002C00000229A6002E07B681B68FB607B685A69C9
:1002D00001231340F7D17B6880221A63C0467B68F4
:1002E0005A6920231340FAD07B6800221A637B6886
:1002F00000225A607B680022DA607B6800221A6262
:100300007B6800221A617B680022DA647B68002225
:100310005A657B6800221A657B689B69FB607B6875
:100320005B69FB603B681B687A68101C191CFFF74F
:10033000E5FE7B68DA68C0231340FB603B685B79AD
:10034000012B04D0022B07D0002B0FD009E0FB6853
:1003500001221343FB600AE0FB6802221343FB60A7
:1003600005E0FB6803221343FB6000E0C0463B68E6
:100370001B79002B21D0FB6808221343FB603B68EC
:100380001B79022B08D002DC012B15D013E0032BC4
:1003900007D0042B0AD00EE0FB6810221343FB6049
:1003A0000BE0FB6820221343FB6006E0FB68302271
:1003B0001343FB6001E000E0C0463B689B79012BE2
:1003C00004D1FB6804221343FB6000E0C046FB68D5
:1003D000DBB21A1C7B68DA60BD4604B080BDC04643
:1003E0000080044080B582B000AF78600A1CFB1C1E
:1003F0001A70FB1C1A787B681A60BD4602B080BD7B
:1004000080B584B000AF786039603B1C0F330022A8
:100410001A703B1C0F333A1C0F32127801210A4329
:100420001A703B689B78012B0AD0022B11D0002B4D
:1004300019D13B1C0F333A1C0F3212781A701CE092
:100440003B1C0F333A1C0F32127840210A431A70BA
:1004500013E03B1C0F333A1C0F32127880214942C3
:100460000A431A7009E03B1C0F333A1C0F32127812
:10047000402149420A431A70C0463B685B78012B11
:1004800007D13B1C0F333A1C0F32127804210A4368
:100490001A703B681B78012B07D13B1C0F333A1CA9
:1004A0000F32127802210A431A703B1C0F331A785C
:1004B000CF231A407B689A60BD4604B080BDC04619
:1004C00080B582B000AF78607B6800229A707B684C
:1004D00001221A707B6801225A70BD4602B080BDAD
:1004E00080B582B000AF78600A1CFB1C1A70FB1C40
:1004F0001B78012B06D17B681B6B80221A437B681B
:100500001A6304E07B681B6B7B6800221A63BD469C
:1005100002B080BD80B58AB000AFF860B9607A6083
:100520001A1CFB1C1A70BB687B617B687B62FB1C1E
:100530001B78012B36D100233B622FE001235B4265
:10054000FB6105E0FB69002B08D0FB69013BFB6107
:10055000FB685A6920231340F4D000E0C046FB69D1
:10056000002B47D01023BB6112E07B691B787A69AE
:1005700001327A61FA68101C191CFFF733FFBB695E
:10058000013BBB617B6A013B7B623B6A01333B629F
:10059000BB69002B02D07B6A002BE6D17B6A002B63
:1005A000CCD12AE000233B6220E0FB685A6920237B
:1005B000134021D01023BB6112E07B691B787A695C
:1005C00001327A61FA68101C191CFFF70BFF7B6A75
:1005D000013B7B62BB69013BBB613B6A01333B6210
:1005E000BB69002B02D07B6A002BE6D17B6A002B13
:1005F000DBD102E0C04600E0C0463B6A181CBD46A5
:100600000AB080BD80B500AF124B124A5268042177
:100610000A435A600F4A0F498023CB588021C902F0
:1006200019438023D1500B4A9C230221D150012031
:10063000FFF746FD084B02221A61074B074A1A6072
:10064000054B054A526802210A435A60C046BD461E
:1006500080BDC04600800440008005400F070000B8
:1006600080B582B000AF2A4B2A4A1A602A4B012279
:100670001A64294B01225A64274B00225A64264BE4
:1006800001225A64C046244B5A6C01231340FAD00D
:10069000214B9B687B607B685B0A5B027B601E4B27
:1006A0007A6823210A439A601B4A1B498E239B00C8
:1006B000CB588021181C8843011C8E239B00D150ED
:1006C000C046154BDA6801231340FAD0124B0322BF
:1006D0001A67114B01225A670F4B00225A670E4BC3
:1006E00001225A67C0460C4B5A6F01231340FAD0BF
:1006F000094B01229A67064B1B689A00074B1A6048
:10070000064B1A68064B1A60C046BD4602B080BD53
:1007100000000010001BB70000800440040000101F
:100720000800001080B582B000AF184B00221A629A
:10073000164A16498E239B00CB582021181C88434B
:10074000011C8E239B00D15000237B6002E07B685C
:1007500001337B607B68FF2BF9D9FFF781FF0B4AE0
:100760000A498E239B00C958094B19408E239B00D0
:10077000D150064A05498023CB58802149021943AC
:100780008023D150C046BD4602B080BD00800440E9
:10079000FFFAFFFF0000000090B585B000AF786061
:1007A000114A1268BA600022FA607A68131C0022AB
:1007B000141C181C211CBA68FB6801F0C7F8031C44
:1007C0000C1C181C211C074B054A01F09FF8031C48
:1007D0000C1CBB60FC60BB68181CBD4605B090BD1E
:1007E00040420F000000000008000010C046C04654
:1007F00080B582B000AF78600A1CFB1C1A70FB1C2D
:100800001B780122111C99400B1C1A1C7B681A6072
:10081000BD4602B080BDC04680B582B000AF7860F2
:100820000A1CFB1C1A70FB1C1B78012B06D17B6871
:100830005B6801221A437B685A6007E07B685B684B
:100840000122191C91430A1C7B685A60BD4602B004
:1008500080BDC04680B588B000AFF8607A603B1CB0
:100860000B330A1C1A70FA68414B9A4204D180205B
:10087000012100F011FC1FE0FA683E4B9A4206D1BC
:1008800080235B00181C012100F006FC14E0FA68CC
:10089000394B9A4206D180239B00181C012100F09D
:1008A000FBFB09E0FA68354B9A4205D18023DB0057
:1008B000181C012100F0F0FBFB689B6A0322191C45
:1008C00091430A1CFB689A62FB689A6A3B1C0B33D3
:1008D0001B781A43FB689A62FB6800229A60FB68E7
:1008E00000221A61FB680022DA603B1C0B331B7884
:1008F000002B22D17B68BB61BB691B78002B04D124
:10090000BB695B68013BFB6107E0BB695B68181C66
:10091000FFF742FF031C013BFB61FA68144B9A424C
:1009200003D0FA68134B9A4203D1FB691B041B0CDA
:10093000FB61FB68FA69DA6013E07B687B61FB6846
:100940009B6A0C22191C91430A1CFB689A627B6902
:100950005B78012B05D1FB689B6A04221A43FB6874
:100960009A62FB683F221A60BD4608B080BDC0464F
:1009700000C00040000001400040014000800140F4
:1009800080B582B000AF786039603B681B78012B7E
:100990000FD002DC002B05D01CE0022B10D0032B63
:1009A00013D017E03B689B681B041A0C7B689A61A4
:1009B00010E03B689B681B041A0C7B68DA6109E055
:1009C0003B689A687B681A6204E03B689A687B68B7
:1009D0005A62C0467B685B693A6812780721081C36
:1009E0009040021CD2431A407B685A613B685B7896
:1009F000002B0FD07B6859693B681B781A1C131CAD
:100A00005B009B180122101C9840031C0A1C1A430F
:100A10007B685A613B68DB78002B10D07B68596992
:100A20003B681B781A1C131C5B009B1801330122C6
:100A3000101C9840031C0A1C1A437B685A613B68CF
:100A40009B78002B10D07B6859693B681B781A1C77
:100A5000131C5B009B1802330122101C9840031CDE
:100A60000A1C1A437B685A617B68DB6B3A68127810
:100A7000520004320321081C9040021CD2431A4049
:100A80007B68DA637B68DA6B3B681B79191C03238C
:100A900019403B681B785B000433081C9840031C1A
:100AA0001A437B68DA63BD4602B080BD80B582B070
:100AB00000AF021CFB1D1A70064BFA1D1278111CA8
:100AC0001F220A400121081C9040021C1A60BD46EA
:100AD00002B080BD00E100E080B584B000AF4020EE
:100AE000012100F0D9FA00208021012200F074F9E0
:100AF00003200821002200F06FF9AC20022100F051
:100B000047FB5020022100F043FB00F0CDFB3E4BA1
:100B1000181C012100F0F4FCA020022100F016FBBB
:100B200080239B00181C012100F0B6FA374B0122EC
:100B30001A6700F07BF8364B181C00F0B1F903205F
:100B4000012100F067FAFFF797FB3B1C0833E12215
:100B500052021A603B1C083300221A713B1C0833F6
:100B600003225A713B1C083300229A713B1D181C4A
:100B7000FFF7A6FC274A3B1C0833101C191CFFF783
:100B800087FB244A3B1D101C191CFFF739FC214B25
:100B9000181C0121FFF7A4FC1E4A1F4B101C191C36
:100BA0000D220023FFF7B6FCFFF72CFD1320FFF703
:100BB0007DFF1A4B00221A70184B194A5A60194AC5
:100BC000164B101C00211A1CFFF744FE164B002286
:100BD0001A70154B01225A70134B0222DA70124B15
:100BE000FA2212019A600F4A0F4B101C191CFFF7D2
:100BF000C7FE0C4B181C0221FFF70EFE094B181CF8
:100C00000121FFF709FEFEE7302B00000040014004
:100C10001400001000800040442B00002000001051
:100C2000DF2E0000008001402800001080B500AFDA
:100C3000064B03221A70054B08225A60034B02220E
:100C40001A72024B01225A72BD4680BD1400001078
:100C500080B500AF0320082100F0C2F90320002175
:100C600000F0D8F9084B181C0221FFF7D5FD064B00
:100C7000181C0121FFF7D0FD044B02225A60034BE0
:100C800001225A60BD4680BD008001400040014005
:100C900080B500AF1D4B9A681D4B1A601B4B181C8A
:100CA0000021FFF7B9FD1B4B181C0021FFF7A0FD29
:100CB000184B181C0021FFF7AFFD174B1B78002BBA
:100CC00004D00020802100F0B9F803E0002080214A
:100CD00000F0CEF8104B1B7801225340DAB20E4BD5
:100CE0001A700E4B181C022100F00AFC084B1B68FE
:100CF000181C052100F02CFC044B00229A600320F4
:100D0000012100F087F9BD4680BDC046004001408A
:100D100010000010008001400C000010542B000057
:100D200080B582B000AF021CFB1D1A70064BFA1D85
:100D30001278111C1F220A400121081C9040021C3D
:100D40001A60BD4602B080BD00E100E080B582B00F
:100D500000AF021CFB1D1A70074AFB1D1B78191CF3
:100D60001F230B400121081C9840031C191C8023E1
:100D7000D150BD4602B080BD00E100E080B584B036
:100D800000AF021CFB1D1A700023FB60FB1D1B78CB
:100D9000012B0CD002DC002B05D011E0022B09D076
:100DA000032B0AD00CE0A023DB05FB6009E0074B16
:100DB000FB6006E0064BFB6003E0064BFB6000E0D7
:100DC000C046FB68181CBD4604B080BD0000015041
:100DD000000002500000035080B584B000AF3960BD
:100DE000FB1D011C1970BB1D1A70FB1D1B78181C04
:100DF000FFF7C4FF031CFB60BB1D1B78002B0DD14C
:100E0000FA6880231B02D3583A68D24313401B056B
:100E1000190DFA6880231B02D1500CE0FA68802378
:100E20001B02D2583B681B051B0D111C1943FA68A5
:100E300080231B02D150BD4604B080BD80B584B074
:100E400000AF021C3960FB1D1A70FB1D1B78181CBB
:100E5000FFF794FF031CFB603B681B051A0D3B6802
:100E60001B05190DFB689200D150BD4604B080BD32
:100E700080B584B000AF021C3960FB1D1A70FB1DE9
:100E80001B78181CFFF77AFF031CFB603B681B05EF
:100E90001A0DFB6892000021D150BD4604B080BD00
:100EA00080B584B000AF78607B681B78181CFFF7B2
:100EB00065FF031CFB607B681B7A002B67DB012B43
:100EC00002DD042B63DC27E0FA68414BD2587B68D3
:100ED0005B68111C1943FA683D4BD1507B681B7A43
:100EE000002B0CD1FA683B4BD2587B685B681B0522
:100EF0001B0D111C1943FA68364BD15047E0FA68B4
:100F0000344BD2587B685B68DB4313401B05190DDB
:100F1000FA68304BD1503AE0FA682D4BD2587B68D2
:100F20005B68DB4313401B05190DFA68284BD15051
:100F30007B681B7A042B0CD1FA68274BD2587B684C
:100F40005B681B051B0D111C1943FA68224BD1501D
:100F50001CE07B681B7A022B0CD1FA681D4BD2581F
:100F60007B685B681B051B0D111C1943FA68194B44
:100F7000D1500BE0FA68174BD2587B685B68DB43B3
:100F800013401B05190DFA68124BD150C0467B68FF
:100F90005B7A012B0CD1FA68104BD2587B685B68E6
:100FA0001B051B0D111C1943FA680C4BD1500BE0AB
:100FB000FA680A4BD2587B685B68DB4313401B0519
:100FC000190DFA68054BD150BD4604B080BDC0462E
:100FD000048000000C8000000880000010800000E9
:100FE00080B584B000AF021C3960FB1D1A70FB1D78
:100FF0001B78181CFFF7C2FE031CFB603B681B0537
:10100000190DFA68024BD150BD4604B080BDC046F0
:101010001C80000080B584B000AF0A1CFB1D011CC1
:101020001970BB1D1A70FB1D1B78012B0DD002DC43
:10103000002B05D018E0022B0CD0032B0FD013E0AF
:101040003B1C0F331F221A700FE03B1C0F331E2274
:101050001A700AE03B1C0F331D221A7005E03B1C7E
:101060000F331C221A7000E012E0BB1D1B78002B0E
:1010700007D13B1C0F331B785BB2181CFFF766FED1
:1010800006E03B1C0F331B785BB2181CFFF748FED1
:10109000BD4604B080BDC04680B582B000AF786068
:1010A0000A1CFB1C1A70FB1C1B78002B0BD10E4A70
:1010B0000D498023CB587968C94319400B4B19401F
:1010C0008023D1500DE0FB1C1B78012B09D1064A6F
:1010D00005498023C9587868044B0340194380238D
:1010E000D150BD4602B080BD00800440FFBF050066
:1010F00080B582B000AF7860034A98237968D150F8
:10110000BD4602B080BDC0460080044080B582B0BC
:1011100000AF00237B600B4A9823D258FF23134073
:101120007B607B68002B01D1002306E0064B1B6827
:10113000181C796800F0FCFA031C181CBD4602B0AC
:1011400080BDC046008004400400001080B584B01B
:1011500000AF78600A1CFB1C1A707B680B4A9B1856
:101160001B68FB60FB6807229343FB60FB1C1A783B
:1011700007231340FA681343FB607B68034A9B18FC
:10118000FA681A60BD4604B080BDC0460040044005
:1011900080B584B000AF78600A1CFB1C1A707B68B5
:1011A000074A9B181B68FB60FB6818229343FB608F
:1011B0007B68034A9B18FA681A60BD4604B080BD7C
:1011C0000040044080B582B000AF134B7B60134BEE
:1011D0003B6009E07B681A683B681A603B6804332F
:1011E0003B607B6804337B603A680D4B9A42F1D3D5
:1011F0000C4B3B6005E03B6800221A603B680433FF
:101200003B603A68084B9A42F5D3FFF78BFAFFF739
:1012100063FCBD4602B080BD642B000000000010DE
:101220000C0000100C0000103400001080B500AF5E
:10123000FEE7C04680B500AF032001210122FFF781
:10124000CBFD032002210122FFF7C6FD032004216C
:101250000122FFF7C1FD022040210122FFF7BCFD62
:10126000022080210122FFF7B7FD80235B000220CE
:10127000191C0122FFF7B0FD80239B000220191CDE
:101280000122FFF7A9FD03200221FFF7F1FD032052
:101290000121FFF7EDFD03200421FFF7E9FDC04622
:1012A000BD4680BD0000000098B500AFFFF7C2FF4B
:1012B0002E4C2D4B181C211C00F0C6F903200021D8
:1012C00000F0EEF800F05CF8294B2A4C181C211CA9
:1012D00000F0BAF900F054F8274B284C181C211CD8
:1012E00000F0EAF900F04CF8214B224C181C211CAC
:1012F00000F0AAF90220002100F0D2F81E4B1F4C8A
:10130000181C211C00F0D8F9282000F051F81A4BC5
:101310001A4C181C211C00F0CFF9102000F048F8DE
:10132000154B164C181C211C00F0C6F9062000F0C5
:101330003FF8114B114C181C211C00F0BDF90C207A
:1013400000F036F80C4B0D4C181C211C00F0B4F9C1
:10135000012000F02DF8064B064C181C211C00F053
:1013600073F9C046BD4698BD00000000000049402A
:1013700000000000000024400000000000406F401A
:1013800098B500AF03200421FFF758FD074C064B2A
:10139000181C211C00F090F903200421FFF768FDC0
:1013A000C046BD4698BDC0460000000000406F40EA
:1013B00090B585B000AF021CFB1D1A703B1C0F33AB
:1013C000FA1D12781A703B1C0F333A1C0F32127838
:1013D00012091A703B1C0F331B78181C002100F0F7
:1013E0005FF83B1C0F33FA1D12781A703B1C0F3349
:1013F0003A1C0F3211780F220A401A703B1C0F332F
:101400001B78181C002100F04BF8064C044B181CEC
:10141000211C00F051F9C046BD4605B090BDC04644
:10142000000000000000494090B585B000AF021CEC
:10143000FB1D1A703B1C0F33FA1D12781A703B1CEF
:101440000F333A1C0F32127812091A703B1C0F33FB
:101450001B78181C012100F023F83B1C0F33FA1DE8
:1014600012781A703B1C0F333A1C0F3211780F227E
:101470000A401A703B1C0F331B78181C012100F026
:101480000FF8064C044B181C211C00F015F9C0463F
:10149000BD4605B090BDC0460000000000004940B8
:1014A00090B583B000AF0A1CFB1D011C1970BB1D59
:1014B0001A70BB1D1B78002B04D003200121FFF7FD
:1014C000BDFC03E003200121FFF7D2FCFB1DFA1D48
:1014D000127812011A70FB1D1B78181C00F09EF880
:1014E000064C054B181C211C00F0E6F8FFF748FFDE
:1014F000C046BD4603B090BD00000000000034406F
:1015000080B582B000AF78600A1CFB1C1A70FB1C0F
:101510001B78012B02D18020FFF74AFFFB1C1B78B0
:10152000022B0CD1C020FFF743FF08E07B681B783B
:10153000181CFFF779FF7B6801337B6000E0C04631
:101540007B681B78002BF1D1C046BD4602B080BD40
:1015500080B586B000AF786039603B1C083300224C
:101560001A703B1C083300225A703B1C08330022BF
:101570009A703B1C08330022DA703B1C08330022AF
:101580001A7104237B6100233B6115E07B68181C02
:101590000A2100F071F90B1CDAB2391C08317B69A1
:1015A000CB181A707B68181C0A2100F00FF9031C75
:1015B0007B607B69013B7B617B68002BE6D13B68EC
:1015C00001330BD102E03B6901333B613A1C083225
:1015D0003B69D3181B78002BF5D003E03B6805224C
:1015E000D31A3B617B68002B02DA2D20FFF71CFF2A
:1015F0003B697B610CE03A1C08327B69D3181B788D
:101600003033DBB2181CFFF70FFF7B6901337B61BE
:101610007B69042BEFDDBD4606B080BD80B582B08E
:1016200000AF021CFB1D1A70064AFB1D1978F0233F
:101630000B409B00191CF0231B01D150BD4602B08A
:1016400080BDC0460000025090B587B000AF386042
:101650007960144C124BBB60FC6013E000237B618B
:1016600002E07B6901337B617A69114B9A42F8DDB4
:10167000B868F9680C4A0D4B00F0C4F9031C0C1C47
:10168000BB60FC60B868F9683A687B6800F016F9DE
:10169000031C002BE2D1BD4607B090BDC046C0463A
:1016A0000000000000000000000000000000F03F0B
:1016B000D3300000C046C04690B587B000AF386058
:1016C0007960184C164BBB60FC601AE03B1C17336A
:1016D00000221A7006E03B1C17333A1C17321278AE
:1016E00001321A703B1C17331B780D2BF3D9B868E5
:1016F000F9680D4A0D4B00F085F9031C0C1CBB600A
:10170000FC60B868F9683A687B6800F0D7F8031C99
:10171000002BDBD1BD4607B090BDC046C046C046D9
:101720000000000000000000000000000000F03F8A
:10173000002934D00123002210B488422CD3012484
:101740002407A14204D2814202D209011B01F8E719
:10175000E400A14204D2814202D249005B00F8E7D2
:10176000884201D3401A1A434C08A04202D3001BFE
:101770005C0822438C08A04202D3001B9C08224331
:10178000CC08A04202D3001BDC082243002803D06F
:101790001B0901D00909E3E7101C10BC70470028A1
:1017A00001D00020C04307B4024802A140180290B3
:1017B00003BDC046D90000000029F0D003B5FFF7F3
:1017C000B9FF0EBC4243891A1847C046002941D0D0
:1017D00010B4041C4C40A44601230022002900D56B
:1017E0004942002800D5404288422CD301242407D6
:1017F000A14204D2814202D209011B01F8E7E400B0
:10180000A14204D2814202D249005B00F8E788423B
:1018100001D3401A1A434C08A04202D3001B5C08B3
:1018200022438C08A04202D3001B9C082243CC0810
:10183000A04202D3001BDC082243002803D01B096E
:1018400001D00909E3E7101C6446002C00D5404292
:1018500010BC7047002806D003DB0020C0434008BE
:1018600001E08020000607B4024802A1401802905F
:1018700003BDC046190000000029EBD003B5FFF7F7
:10188000A7FF0EBC4243891A1847C0467047C0469E
:101890008446101C62468C46191C634600E0C04614
:1018A0001FB500F00DFD002801D40021C8421FBD66
:1018B00010B500F053FC4042013010BD10B500F0EF
:1018C000FFFC002801DB002010BD012010BDC04638
:1018D00010B500F0F5FC002801DD002010BD01204E
:1018E00010BDC04610B500F077FC002801DC0020D8
:1018F00010BD012010BDC04610B500F06DFC0028E1
:1019000001DA002010BD012010BDC046002B11D10E
:10191000002A0FD1002900D1002802D00021C9439C
:10192000081C07B4024802A14018029003BDC0463B
:101930005DFFFFFF03B4684601B5029800F046F86A
:10194000019B9E4602B00CBC7047C0469C460304F7
:10195000F0B51B0C17043F0C150C1E1C041C000CCE
:101960007E436B4347434543FB18300C18188742AE
:1019700002D980277B02ED18070CED1967467C43DE
:101980004A433604330CA11800044919C018F0BDAD
:10199000F8B54F464646C0B41D1C141C061C0F1C4F
:1019A00000F018FD814688464346291C4A46201C03
:1019B000FFF7CCFF089B361A8F411E605F604846D8
:1019C00041460CBC90469946F8BDC046F8B54F4616
:1019D0004646C0B41D1C141C061C0F1C00F0E2FE81
:1019E0002B1C221C81468846FFF7B0FF089B361A45
:1019F0008F411E605F60484641460CBC9046994648
:101A0000F8BDC046F8B55F4656464D464446F0B46C
:101A10000C03460F640A3443A3465E001C03DB0F2D
:101A20009C46630A98464D00530F44461C436D0D77
:101A3000C90F760DD2000F1CC000A1469246AB1B09
:101A4000614500D1A2E0002B00DCF0E0002E0CD1BB
:101A5000261C164300D1C0E0013B002B00D041E121
:101A60005C464B46821AE71A21E0D04EB54200D1BF
:101A7000C8E080244A4627043A439146382B00DDCB
:101A80000AE11F2B00DD4BE12026F61A4C46524698
:101A90005746B440B740DA4022433E1C4C46771EBE
:101AA000BE41DC403243261C5B46821A9F1B90429B
:101AB00080414642BB1B141C2E1C0F1C180200D474
:101AC000A9E05D02690A88464246002A00D1D4E0B6
:101AD000404600F061FC051C083D1F2D00DDD5E0EF
:101AE0002822131A201C4146D840A940031C0B434E
:101AF000AC40AE4200DD8BE0AE1B711C1F2900DD47
:101B0000FBE01F20851B1A1C201CAA40C840AC40CB
:101B10001043661EB4410443CB40012200260F202F
:101B20002040042862D0201DA042A441614201252A
:101B30005B182F401C0207D59C4EB24200D198E0A2
:101B40009B4C161C234001325C07C008520504431D
:101B5000DB08510D012960DD1B0371051B0B4E0DC8
:101B6000002000210A0D201C1105924C0B43760524
:101B700075081C402C4363005A08FF07111C3943A9
:101B80003CBC90469946A246AB46F8BD002B00DC13
:101B90008EE0002E2ED0854EB54200D1A6E08024E6
:101BA0004E4622041643B146382B00DD16E11F2BAA
:101BB00000DD71E12026F61A4A46B24090465246B0
:101BC0004446DA4022435446B440261C741EA641C3
:101BD0004C463243DC401218F4E0041C0F206A1C0F
:101BE0005B462E1C0F1C204004289CD101252F4051
:101BF000201C9FE7144300D0DEE06A1C5B46041CF7
:101C00002E1C8CE780215B46041C0A012E1C86E7F3
:101C1000761B674D2B40721C81E7251C1D4300D1AC
:101C200068E2002E41D080200203134394E7002B8A
:101C300000D088E0691C4E05740D012C00DC1BE10E
:101C40005B46161C4C46821A191B90429B415B4214
:101C5000C91A88460B0200D49EE0371ABA45924151
:101C60005E46A41B5342E11A88463C1C2E1C674664
:101C70002AE7161C0023002472E7201C00F08CFBCE
:101C80002030051C083D1F2D00DC29E7031C283BE4
:101C90009C40231C00242CE74A4653461A43002646
:101CA000002A00D100E70122FEE61D032B0B57E7B7
:101CB000002B00D005E16E1C7405630D012B00DCC8
:101CC000ABE03A498E4200D131E1111881428041A6
:101CD0004B4642425B449B18DC0749080C435B08B7
:101CE000AA1C1CE7314FBD4200D0C7E6041C80206F
:101CF0005B460F1C02012E1C11E7301C1F381A1CFA
:101D0000C240151C202900D183E03F218E1BB34027
:101D10001C43631E9C412C43012200230026FEE647
:101D20001C1C203C4F46E7403E1C202B73D0402219
:101D3000D41A4B46A3401A1C57463A43531E9A41A5
:101D400032430026B0E65F42002D51D0174DAE421F
:101D500000D156E180245A4621040A439346382F85
:101D600000DDDBE01F2F00DD79E12021CC1B051C0D
:101D70005A46A240FD40A04015435B46421E90419A
:101D80002843FB4057463C1AA24592414846C11A97
:101D900055424B1B674691E6081C104331D1002782
:101DA0000122002304200026C4E6C046FF070000ED
:101DB000FFFF7FFFFFFF0F80013B002B24D1534625
:101DC0001A184C46824280415C444342E3182E1C60
:101DD000141C18023ED4721C0F1CA0E64A4653463F
:101DE0001A430024002A00D1F5E601221218E9E77F
:101DF0005B46034300D083E0231C721C54466746B5
:101E00008DE6141C2E1C5FE6CD4EB54200D0CBE60D
:101E10006CE700237CE700228EE75E460643002D38
:101E200000D0F4E0002E00D14CE14B46134300D12A
:101E30007EE115184E46854280415E444242B31809
:101E40001E0200D482E1BF4F2C1C3B4002220F1C1B
:101E5000012664E6BA4D701CA8424BD0B94F01254B
:101E6000254062083B402C1CDF0714433C43B21C56
:101E70005B08061C0F1C52E65E460643002D2CD163
:101E8000002E00D07DE04E46141C164387D04B46F2
:101E900067460122002642E61E1C203E4C46F440C6
:101EA000261C202B00D1D8E04022D41A4B46A34058
:101EB0001A1C54462243531E9A41324300241218DE
:101EC00080E75B42002D37D15C46044300D0D7E069
:101ED000721C4B4654460F1C21E6002E6ED14B4619
:101EE000141C134300D1DCE080254B4667462A01D1
:101EF000934E14E68021061C0A010023042019E6F3
:101F0000013F002F79D1171A5B46BA45AD414946CA
:101F1000CA1A68423C1C131A6746CFE55F4607435E
:101F200000230020002F00D12CE701202AE7802584
:101F30002A0100230420FDE5814DAE4200D1D3E00B
:101F400080245D4622041543AB46382B00DDB0E00B
:101F50001F2B00DDDBE02025ED1A021C5C46AC40A7
:101F6000DA40A840451EA841224302435846D840C3
:101F7000031C55465419544592414B4450421B187A
:101F800027E74A465646324300D185E0851B5B462B
:101F90004C46A8429241191B56428B1B1E0200D48C
:101FA000ADE057463D1A5B46AA458941E41A4A42CC
:101FB000A31A67462C1C01220026B0E54D46161CCC
:101FC000154344D05C468021C0086207E3080D0336
:101FD00010432B4200D181E04C46E10829427DD1DB
:101FE000F70866073E430B1C6746700FDB00802234
:101FF000F40003431201524E91E5514DAE4200D020
:10200000ADE680204B4654466746020187E5002E28
:102010005ED04C4614431AD0C70880255846430763
:102020002C03C0081F43204208D04E46F308234229
:1020300004D15246D5087707181C2F43C300FC0073
:10204000780F0F1C802103430A013D4E67E580266F
:1020500032015B46041C3A4E61E5002229E7391C37
:1020600020395C46CC40221C202F67D04023DF1B48
:102070005D46BD402843431E98411043002381E63E
:10208000013B002B2CD150445C469042AD414C4466
:102090006A42A318041C9CE65B46041C012200262D
:1020A0003DE58024042100272201274B4842244E8D
:1020B00040E55D46054300230022002D00D158E78E
:1020C000012256E7141C4B460F1C0122002626E570
:1020D000141C80224B461201194E20E5061C84E791
:1020E000174A964200D030E70F1C80214B465446D9
:1020F0000A0114E57605760D0023002430E5181C4E
:10210000284300D14BE62C1C0122002607E51C1CAD
:10211000203C5D46E5402C1C202B1CD04022D31ACD
:102120005A469A400243501E82412243002320E730
:102130005B46041C0F1C01220026F0E4002599E7F1
:10214000FF070000FFFF7FFFFFFF7F002C1C0F1C1D
:1021500001220026E3E40022E4E7C046F0B59446FD
:1021600047461A03061C580080B4170B420D194845
:102170000D034C00DB0F2D0B640DC90F98468442F4
:1021800008D0144882420DD00120944212D004BCE1
:102190009046F0BD2B1C33430120002BF7D10D4896
:1021A0008242F1D163463B430120002BEFD1012055
:1021B0009442ECD1BD42EAD16645E8D1414506D012
:1021C000002CE4D1281C3043451EA841DFE7002045
:1021D000DDE7C046FF070000F0B557464E464546CE
:1021E000E0B4041C4E000803C90F8A46171C5900AE
:1021F0001A03050B700D160B4A0D3049DB0F9C4678
:10220000884232D02D498A4235D000280FD1291C6E
:1022100021434B424B419846002A0BD0002B1AD148
:10222000E2452CD05546002D18D1012018E0002A97
:10223000F6D19046311C39434B424B41414600296F
:1022400006D1002BECD056460120002E08D005E028
:102250000020002B04D16746002FE6D1012358420D
:102260001CBC90469946A246F0BD2B1C2343C9D006
:1022700002214842F4E7331C3B43C6D0F8E79042C2
:1022800005DC09DA5246002AE8D00120E8E7544686
:10229000002CE3D10120E3E7B542C3D807D00020EA
:1022A000B542DDD250460028D8D00120D8E7BC4244
:1022B000B8D80020BC42F5D3D2E7C046FF070000E3
:1022C000F0B544465F4656464D46F0B49446061C6B
:1022D0001A035800170B420D2E480D034C00DB0F5C
:1022E0002D0B640DC90F9846844233D02948824291
:1022F00036D0002C19D0002A20D1934663463B43A8
:10230000584258415B468246002B1DD05146002062
:10231000002904D14246002A14D1012460423CBC69
:1023200090469946A246AB46F0BD2B1C334358421B
:1023300043419B46002AE1D0002BEBD1414515D00B
:102340000029EAD10120EAE70028F7D0012000297E
:10235000E5D0E2E72B1C33430220002BDFD1C5E799
:1023600063463B430220002BD9D1C2E79442E7DC0D
:1023700005DBBD42E4D806D00020BD42CFD2002903
:10238000CBD00120CBE76645DAD800206645F6D3EE
:10239000C5E7C046FF0700001C2101231B0498422B
:1023A00001D3000C10391B0A984201D3000A0839E6
:1023B0001B09984201D30009043902A2105C40189D
:1023C0007047C04604030202010101010000000041
:1023D00000000000F0B54D4644465F465646F0B456
:1023E0001C1C85B00025002900DAE2E0002C00DA90
:1023F000D8E083460F1C92461E1C141C804689465A
:10240000002B5AD18A426DD9101CFFF7C5FF002856
:102410000CD02023191A5A463E1CCA408640171C6D
:1024200037435E4686408440B946B046260C2004B9
:10243000030C311C48469B46FFF77AF95946414345
:10244000071C8A464846311CFFF7B6F94246080485
:10245000130C1843824509D90019791E844200D90A
:102460007EE1824500D87BE1023F00195246831A83
:10247000181C311C9A46FFF75BF9594641438146C7
:102480008B465046311CFFF797F946463204080444
:10249000130C184383450BD94E460119013E8C425B
:1024A00000D95FE18B4500D85CE1022460428144A1
:1024B00038044F463843002603E08B4265D9002696
:1024C0000020021C331C002D03D0311C002342428B
:1024D0008B41101C191C05B03CBC90469946A24685
:1024E000AB46F0BD002A04D101200021FFF720F9FE
:1024F000041C201CFFF750FF002862D14F46230424
:102500003E1B180CB146270C00900126391C48468A
:10251000FFF70EF9009A82464243391C484693461B
:10252000FFF74AF943460904180C01438B4508D9C3
:1025300052460919013A8C4202D88B4500D928E14C
:1025400092465A46881A391C8346FFF7F1F80099DB
:102550008146414358460091391CFFF72DF9474603
:102560003B04009F08041A0C1043874208D94B46CD
:102570000119013B8C4202D88F4200D90EE19946E5
:10258000524610044F4638439BE7181CFFF704FFE0
:10259000041E6ED1BE4202D3DA4500D98FE7002671
:1025A00001208EE7161C1F1CED4300237242BB4125
:1025B0001FE7051C0E1C00216842B14101256D4238
:1025C00014E720210B1A4746DF404E464A46DE40BC
:1025D00082408440391C434683401143270C200429
:1025E000020C0191301C391C98460092FFF7A0F8AC
:1025F000009982464143301C8946391CFFF7DCF8BC
:10260000019E0904330C194389450CD95046091918
:1026100001388C4200D9BAE0894500D8B7E00222DF
:102620005642B24409194B46C81A391C8146FFF775
:102630007FF80099061C414348468B46391CFFF73A
:10264000BBF8019A09041304180C01438B4509D9FE
:102650000919721E8C4200D995E08B4500D892E092
:10266000023E09195B465246C81A110481460E43C0
:102670004CE720231B1A5246DA4086401643504648
:102680005A46DA40A040391CD9400090131CA7409C
:1026900030043B438946370C010C02914846391CF3
:1026A0000193FFF745F8029A82464243391C484697
:1026B0009346FFF781F8019B0904180C01438B45F1
:1026C0000AD952468919013A8E425ED88B455CD9A7
:1026D00002235842824489195A46891A0391081CD8
:1026E000391CFFF725F8029B391C434381460398A8
:1026F0009B46FFF761F8019F09043804020C11435F
:102700008B450AD94B468919013B8E4239D88B45F6
:1027100037D902277842814489195E4653468A1B7D
:10272000180449460843009993460A040704120C0A
:102730003B0C060C0F0C111C594372437B437E4328
:10274000D3180F0C8C46D9198A4202D98022530221
:10275000F6180F0CF219934510D305D00026B0E6F9
:102760000F1C83E6B146A3E6664643463704A34002
:1027700009043A0C1C1C8B189C42EFD2013800262D
:102780009FE69946C9E7161C6CE79246A4E7824685
:1027900049E70223584282440919D2E602246042E2
:1027A0008144EDE6F0B55F464D4644465646F0B4EA
:1027B000914683B0041C0F1C9846151C061C8B46C2
:1027C000002B55D18A426BD9101CFFF7E5FD00287C
:1027D0000AD020223B1C211C171AF94083400C1CF4
:1027E0001C438540A34686402C0C2804030C211C66
:1027F00058469946FEF79CFF4F4680464743211CAA
:102800005846FEF7D9FF300C090401438F420CD91A
:1028100043464919013B8D4200D95FE18F4200D800
:102820005CE10222504280444919CF1B381C211C14
:10283000FEF77EFF4B464343BA46211C071C504619
:102840009B46FEF7B9FF36040C04310C21438B453F
:1028500008D948197A1E854200D93DE1023F8345D7
:1028600000D839E1454628040023384398460FE054
:102870008B420AD8181CFFF78FFD051E60D1B845A2
:1028800000D225E1A14500D822E10025A84600207C
:10289000414603B03CBC90469946A246AB46F0BDCB
:1028A000002A04D101200021FEF742FF051C281C4C
:1028B000FFF772FD002800D0B3E07C1B01212F043C
:1028C000A2463F0C2C0C8846211C5046FEF730FFD8
:1028D00083467843211C81465046FEF76DFF330C3A
:1028E00008041843814508D95A464019013A8542DF
:1028F00002D8814500D915E193464A46801A211C29
:102900008146FEF715FF211C824647434846FEF7E5
:1029100053FF36040C04320C224397420BD9534622
:102920005019013B854200D9DAE0874200D8D7E050
:1029300002256F42BA445946080454462043A7E78B
:102940004646202386404A46181AC2401643221C97
:10295000C24049463B1CC340A940101CAF409B46A7
:1029600038430091370C31040B0C0190391C584648
:102970009A46FEF7DDFE524642438146391C5846D0
:102980009046FEF719FF019B09041A0C1143884574
:1029900006D94846891901388E4200D8B6E08146EA
:1029A0004046091A8B46081C391CFEF7C1FE5346E7
:1029B0004343391C804658469A46FEF7FDFE019F68
:1029C00009043804030C19438A4506D9424689197B
:1029D000013A8E4200D891E0904656464A468B1BFB
:1029E000100441460843009907040E04360C020CFB
:1029F0009B463B0C0F0C311C594356437B437A4397
:102A0000F3180F0C8C46D9198E4202D98026730216
:102A1000D2180F0CD619B3456CD363D00024A0464E
:102A200036E720210B1A261CDE4085403A1C311C5B
:102A30008740DA403943261C2C0C00918640211C2B
:102A4000101C9346FEF774FE2F043F0C814678431A
:102A5000211C82465846FEF7AFFE009B09041A0C63
:102A600011438A450AD94846491901388D4257D839
:102A70008A4555D902235A42914449195046091AA8
:102A80008B46081C211CFEF753FE031C7B4380462B
:102A9000211C58469A46FEF78FFE009A090410043E
:102AA000030C19438A450AD942464919013A8D4215
:102AB00034D88A4532D902204342984449195246B3
:102AC0004846891A030442461A438A469046FBE662
:102AD000002080460120DBE6171CC3E69846A4E6EA
:102AE0009A4628E7AC400D0461460B041A0CAF1857
:102AF000BC4293D200260138B046C9E68A4500D8C8
:102B00006AE7022778428044891966E7884500D839
:102B100045E702235A429144891941E79046CEE79E
:102B20008146ABE702214B429B444019E5E6C04693
:102B3000202A2A20466C6F77204D65746572202A02
:102B40002A20000048656C6C6F2C20576F726C64F3
:0C2B50002100000046203D200000000095
:082B5C0078F8FF7F0100000082
:0C2B640000093D0000093D0000093D0093
:00000001FF
